:020000040800F2
:1000000060080020390200086B1E0008671A00080B
:10001000691E00082F040008AB2100080000000042
:100020000000000000000000000000006F1E00083B
:1000300031040008000000006D1E0008711E000859
:10004000530200085302000853020008530200083C
:10005000530200085302000853020008530200082C
:10006000530200085302000853020008530200081C
:10007000530200085302000853020008530200080C
:100080005302000853020008530200080000000059
:10009000000000000000000000000000490400080B
:1000A00053020008530200085302000853020008DC
:1000B000191F0008251F0008311F000853020008FF
:1000C00053020008530200085302000853020008BC
:1000D0005302000853020008530200080000000009
:1000E0003304000853020008530200080000000017
:1000F00000000000000000000000000053020008A3
:1001000000000000530200085302000853020008D8
:1001100000000000000000000000000000000000DF
:10012000530200085302000853020008530200085B
:100130005302000800000000000000000000000062
:100140000000000000000000000000005302000852
:10015000530200085302000853020008530200082B
:1001600053020008530200080000000000000000D5
:10017000000000000000000000000000000000007F
:100180000000000053020008000000000000000012
:10019000530200085302000800F002F800F03CF897
:1001A0000AA090E8000C82448344AAF10107DA45D2
:1001B00001D100F031F8AFF2090EBAE80F0013F0E8
:1001C000010F18BFFB1A43F001031847402D000030
:1001D000602D0000103A24BF78C878C1FAD85207C1
:1001E00024BF30C830C144BF04680C6070470000B1
:1001F0000023002400250026103A28BF78C1FBD830
:10020000520728BF30C148BF0B6070471FB502F0CE
:100210006AFE1FBD10B510BD00F0CFF81146FFF704
:10022000F5FF01F0D3FF00F0EDF803B4FFF7F2FFA4
:1002300003BC00F0F5F80000094880470948004772
:10024000FEE7FEE7FEE7FEE7FEE7FEE7FEE7FEE786
:10025000FEE7FEE704480549054A064B70470000E3
:10026000091F0008990100086002002060080020B2
:10027000600400206004002053EA020C00F0698052
:100280002DE9F04B4FF00006002B1FBFB3FA83F5AA
:1002900003FA05F424FA05F65E4012BF1643B2FADB
:1002A00082F502FA05F4C5F120051EBF22FA05FC0D
:1002B00044EA0C04203556EA044C4FEA144418BFB3
:1002C000641C4FF000084FF00009904271EB030CE2
:1002D00039D3002919BFB1FA81F701FA07F6B0FA4C
:1002E00080F700FA07F6C7F120071EBF20FA07FCC7
:1002F00046EA0C062037B6FBF4FCA7EB0507103FD7
:1003000007F01F0BCBF120060CFA0BFB2CFA06F6BC
:1003100044BFB3460026202FA4BF5E464FF0000B1B
:100320005BEA060C08BF4FF0010B19EB0B09ABFBA6
:10033000027C48EB0608C01B06FB02CC0BFB03CC7F
:1003400071EB0C01C1E70B46024641464846BDE849
:10035000F08B13B54FF000004FF00001AFF30080B9
:10036000BDE81C4070474FF0000200B513469446AC
:100370009646203922BFA0E80C50A0E80C50B1F1FD
:100380002001BFF4F7AF090728BFA0E80C5048BF11
:100390000CC05DF804EB890028BF40F8042B08BFAF
:1003A000704748BF20F8022B11F0804F18BF00F8AB
:1003B000012B7047704770477047754600F02CF866
:1003C000AE4605006946534620F00700854618B042
:1003D00020B5FFF73FFFBDE820404FF000064FF08B
:1003E00000074FF000084FF0000B21F00701AC466A
:1003F000ACE8C009ACE8C009ACE8C009ACE8C00989
:100400008D46704710B50446AFF300802046BDE826
:100410001040FFF70ABF00000048704700020020AC
:1004200001491820ABBEFEE7260002007047FEE738
:10043000704710B54FF4005000F062FABDE810406C
:100440004FF4804000F05CBA10B54FF4807000F0BB
:1004500057FABDE810404FF4007000F051BA0000A8
:1004600070B52DED068B9FEDFC9B9FEDFD8BFE4D3A
:10047000A5F180049FEDFD0B84ED100B9FEDFD0BAE
:1004800084ED120B9FEDFD0B84ED1E0B9FEDFD0B1C
:1004900053EC182B85ED000B94ED140B51EC100B65
:1004A00002F0E0F915D194ED100B53EC182B51EC40
:1004B000100B02F0D7F90CD0B0EE480AF0EE680A43
:1004C00053EC102B94ED120B51EC100B02F0CAF907
:1004D0006AD094ED160B53EC182B51EC100B02F074
:1004E000C1F915D1B0EE480AF0EE680A53EC102BB2
:1004F00094ED120B51EC100B02F0B4F908D094ED0E
:10050000100B53EC192B51EC100B02F0ABF91ED071
:1005100094ED140BB0EE48AAF0EE68AA53EC1A2B37
:1005200051EC100B02F09EF91FD094ED100B53EC20
:100530001A2B51EC100B02F095F916D194ED120B19
:1005400053EC192B51EC100B02F08CF90DD1B0EEDD
:10055000490AF0EE690A53EC102B00BF94ED0A0B28
:1005600051EC100B01F072FF6AE094ED160B53ECA6
:100570001A2B51EC100B02F075F918D094ED120BF8
:1005800053EC1A2B51EC100B02F06CF90FD1B0EEBA
:100590004A0AF0EE6A0A53EC102B94ED100B51EC62
:1005A000100B02F05FF902D153EC192BD6E794ED52
:1005B000160B53EC1A2B51EC100B02F053F918D117
:1005C00094ED120B53EC1A2B51EC100B02F04AF97C
:1005D0000FD0B0EE4A0AF0EE6A0A53EC102B94EDFD
:1005E000100B51EC100B02F03DF902D153EC192B1A
:1005F00020E094ED140B53EC1A2B51EC100B02F08D
:1006000031F948D194ED100B53EC1A2B51EC100B2F
:1006100002F028F93FD094ED120B53EC192B51EC5A
:10062000100B02F01FF936D1B0EE490AF0EE690A5C
:1006300053EC102B94ED0A0B51EC100B02F0F8FA6E
:10064000C4E90A0195ED020B53EC182B51EC100B89
:1006500002F008F956D194ED1E0B53EC182B51EC17
:10066000100B02F0FFF84DD0B0EE480AF0EE680A29
:1006700053EC102B95ED000B51EC100B02F0F2F83F
:1006800040D100BF94ED180B53EC192B51EC100B1B
:1006900001F0DCFE1EE194ED160B53EC1A2B51EC2D
:1006A000100B02F0DFF811D094ED120B53EC1A2B63
:1006B00051EC100B02F0D6F808D194ED100B53EC6E
:1006C000192B51EC100B02F0CDF8ADD094ED140BBA
:1006D00053EC1A2B51EC100B02F0C4F8B2D094ED8D
:1006E000100B53EC1A2B51EC100B02F0BBF8A9D1F4
:1006F00094ED120B53EC1A2B51EC100B02F0B2F8E4
:10070000A0D173E795ED040B53EC182B51EC100BB3
:1007100002F0A8F811D195ED000B53EC182B51EC19
:10072000100B02F09FF808D094ED1E0B53EC192B20
:1007300051EC100B02F096F8A4D095ED020B53EC9F
:10074000182B51EC100B02F08DF811D094ED1E0B0C
:1007500053EC182B51EC100B02F084F808D195EDF6
:10076000000B53EC192B51EC100B02F07BF889D0E5
:1007700095ED040B53EC182B51EC100B02F072F8B2
:1007800015D095ED000B53EC182B51EC100B02F02B
:1007900069F80CD1B0EE480AF0EE680A53EC102B61
:1007A00094ED1E0B51EC100B02F05CF8C4D095EDEB
:1007B000040B53EC182B51EC100B02F053F815D12D
:1007C00095ED000B53EC182B51EC100B02F04AF88E
:1007D0000CD0B0EE480AF0EE680A53EC102B94ED02
:1007E0001E0B51EC100B02F03DF86BD095ED020B97
:1007F00053EC182B51EC100B02F034F811D194ED9E
:100800001E0B53EC182B51EC100B02F02BF808D0F8
:1008100095ED000B53EC192B51EC100B02F022F864
:1008200050D095ED040B53EC182B51EC100B02F04B
:1008300019F82CD095ED000B53EC182B51EC100B44
:1008400002F010F823D194ED1E0B53EC192B51EC50
:10085000100B02F007F819E0000000000000F03F64
:100860000000000000000000000100200000000067
:100870000000C040000000000000D0400000000068
:100880000000704000000000000080401AD095ED8C
:10089000020B53EC182B51EC100B01F0E3FF1BD0B3
:1008A00094ED1E0B53EC182B51EC100B01F0DAFFFA
:1008B00012D195ED000B53EC182B51EC100B01F0FD
:1008C000D1FF09D194ED180B53EC192B51EC100BFF
:1008D00002F0AEF9C4E9180194ED100B84ED140B8D
:1008E00094ED120B84ED160B94ED1E0B85ED020BAF
:1008F00095ED000B85ED040BBDEC068B70BD000083
:10090000044910B50A68024202D00860FFF7A8FD4A
:1009100010BD0000143C01402DE9F84FDFF8B8A1EC
:100920000022012403254FF00F090AF1040BAAF15C
:10093000040E00BF0B6804FA02F63340B34273D1D1
:100940000F7907F00307012F01D0022F16D1876816
:100950004FEA420805FA08FC27EA0C07D1F80CC058
:100960000CFA08FC4CEA070CC0F808C04768B7430B
:100970000E79C6F3001696403E4346600E79F64364
:10098000B6070DD0C768560005FA06FC27EA0C0723
:10099000D1F808C00CFA06FC4CEA070CC0F80CC0F1
:1009A0000E7906F00306022E10D1D60800EB860859
:1009B000D8F8206057074FEAD76C09FA0CF7BE4306
:1009C0000F6907FA0CF73743C8F8207006684FEA3A
:1009D000420C05FA0CF7BE430F7907F0030707FA3C
:1009E0000CF7374307604E6816F4403F6DD03B4E1E
:1009F000376847F480473760366822F0030706F40B
:100A000080460096364E07EB060CDCF80868970720
:100A10003F0F09FA07F826EA0806DFF8C8804045C4
:100A200003D14FF000081EE04FE0DFF8BC804045E6
:100A300002D14FF0010816E0DFF8B080404502D146
:100A40004FF002080FE0DFF8A880404502D14FF0D8
:100A5000030808E0DFF89C80404502D14FF004080D
:100A600001E04FF0070808FA07F848EA0608CCF852
:100A70000888DAF800605746D1F804C09E435FEA60
:100A8000CC2C00D51E433E60DBF800605F46D1F8F9
:100A900004C09E435FEA8C2C00D51E433E60DEF806
:100AA00000607746D1F804C09E435FEA8C3C00D5D5
:100AB0001E433E60084F083F3E68D1F804C09E4385
:100AC0005FEACC3C00D51E433E60521C102AFFF466
:100AD00031AFBDE8F88F0000083C014044380240C7
:100AE00000300140000002400004024000080240C3
:100AF000000C0240001002400AB1816170470904F5
:100B0000FBE70000014880687047000018010020E2
:100B10000248816802781144816070471801002002
:100B20000B4810B5016841F400710160016841F49F
:100B300080610160016841F480710160032000F070
:100B400071F8002000F006F800F024F8002010BD35
:100B5000003C024070B50D4D04464FF47A71287880
:100B6000B1FBF0F00A490968B1FBF0F000F0ECFAD3
:100B700048B9102C07D200222146501E00F032F84E
:100B800000206C6070BD012070BD000018010020C5
:100B9000240100200B4882B0016841F480410160CB
:100BA000006800F4804000900648001F016841F092
:100BB00080510160006800F080500090072002B072
:100BC00000F030B844380240002809DB00F01F0272
:100BD000012191404009800000F1E020C0F800119F
:100BE00070470000F0B40E4B1B680C46C3F30223A1
:100BF000C3F10705042D00D90425191D072901D2C9
:100C0000002300E0DB1E012606FA05F1491E214003
:100C100099409E40761E16403143F0BC01F0C6BAA2
:100C20000CED00E0064900F0070208684FF6FF03EC
:100C3000184040EA0220034A104308607047000051
:100C40000CED00E00000FA052DE9F0470E46050026
:100C500065D0DFF81481D8F80000F7B200F0070083
:100C6000B04207D288F80070D8F8000000F0070002
:100C7000B04254D128683D4C810712D5400703D5B6
:100C8000206840F4E05020602878000703D52068F1
:100C900040F4604020602068A96820F0F00008431C
:100CA00020602878C0072DD03049686808390128AD
:100CB00012D0022813D0032811D00968890700290F
:100CC0002DDA216821F0030101432160FFF71AFFAB
:100CD000814641F2883A0EE009688903EFE7096826
:100CE0008901ECE7FFF70EFFA0EB0901514502D99E
:100CF0000320BDE8F0872068696800F00C00B0EBC5
:100D0000810FEFD1D8F80010404601F00701B14241
:100D100007D90770006800F00700B04201D0012039
:100D2000E7E72878400705D52068E96820F4E05017
:100D3000084320602878000706D52068296920F438
:100D4000604040EAC100206000F018F82168084ABD
:100D5000C1F30311515CC8400649086006480068A9
:100D6000FFF7F8FE0020C4E7003C024008380240CC
:100D7000FA2E0008240100201C010020154810B59F
:100D8000006810F00C02144813D04110042A0FD050
:100D9000082A0ED10F4C241F2268236802F03F025C
:100DA0005B0207D52068C0F38810A0FB010106E0B4
:100DB000084610BD2168C1F38811A1FB0001002382
:100DC000FFF75AFA2168C1F30141491C4900B0FB01
:100DD000F1F010BD083802400024F4002DE9F84F6E
:100DE00004006ED02078DFF84C93C007A9F1040509
:100DF0004AD009F104000168C1F38101012908D03A
:100E00000068C0F3810002280AD1D9F8000040022E
:100E100006D52868800337D560680028E1D033E024
:100E20006068B0F5803F10D0B0F5A02F286810D0D2
:100E300020F480302860286820F4802028606068D2
:100E4000A8B1FFF75FFE06460DE0286840F4803049
:100E5000F4E740F480202860F7E700BFFFF752FE78
:100E6000801B642873D828688003F7D50CE0FFF74F
:100E700049FE064605E000BFFFF744FE801B6428DC
:100E8000F0D828688003F7D42078DFF8AC82800798
:100E90004FF0000A3ED5A748001D016811F00C0F65
:100EA00008D00068C0F3810002280BD1D9F80000F7
:100EB000400207D42868800716D5E068012800D1D1
:100EC00012E033E1E068B8B10120C8F80000FFF794
:100ED00019FE064605E000BFFFF714FE801B02283E
:100EE000C0D828688007F7D52868216920F0F80065
:100EF00040EAC10028600DE0C8F800A0FFF702FE3C
:100F0000064604E0FFF7FEFD801B02281FD8286874
:100F10008007F7D42078000722D5864F874861697B
:100F2000703771B101210160FFF7ECFD064604E066
:100F3000FFF7E8FD801B022809D838688007F7D53D
:100F40000EE0C0F800A0FFF7DDFD064605E082E0F8
:100F5000FFF7D8FD801B02287DD838688007F7D4BA
:100F60002078400768D5DFF8CCB100270BF13C0BA7
:100F7000DBF80000C0000BD4DBF8001041F080511A
:100F8000CBF80010DBF80000012700F08050009043
:100F90006B4E3068C00510D4306840F4807030600B
:100FA000FFF7B0FD009005E0FFF7ACFD0099401A97
:100FB000022850D83068C005F6D55E4EA0686C3661
:100FC00001280FD00528306810D020F001003060D3
:100FD000306820F004003060A068B8B1FFF792FDDF
:100FE00000900FE0306840F00100F4E740F00400AA
:100FF0003060F7E7FFF786FD0099411A41F288302B
:10100000814266D830688007F4D50EE0FFF77AFD9C
:10101000009007E0FFF776FD0099411A41F2883011
:10102000814256D830688007F4D42FB1DBF8001025
:1010300021F08051CBF80010A069C8B33D49091DCB
:101040000968C1F3810102294AD00228504607D01D
:10105000C8F8600000E03CE0FFF754FD04463BE0C8
:101060004746C8F86000FFF74DFD064605E000BFA3
:10107000FFF748FD801B02282BD828688001F7D491
:10108000D4E907010843A16A2E4A490802EB01414D
:10109000626A41EA8211084394F82C1040EA016127
:1010A000C9F8001001203866FFF72CFD044606E061
:1010B0003EE000BFFFF726FD001B022809D8286884
:1010C0008001F7D534E000BFFFF71CFD001B0228AC
:1010D00002D90320BDE8F88F28688001F4D427E006
:1010E0000128F7D0D9F80000E26900F480019142AC
:1010F0001CD1226A00F03F01914217D147F6C0711E
:10110000626A0140B1EB821F10D1A26A4FF0FF3337
:1011100000F4403103EB5202B1EB024F06D194F8D8
:101120002C1000F07060B0EB016F01D00120D1E70E
:101130000020CFE70438024000004742800E4742BB
:10114000007000400000FFFF10B5401EB0F1807F2E
:1011500001D3012010BD4FF0E02460610F21601722
:1011600001F024F80020A06107202061002010BDBC
:101170007047704770B590F83C20012A2CD00124AC
:1011800080F83C40022280F83D2003685A689D6840
:1011900022F070060A6832435A60104B02689A4285
:1011A0000ED0B2F1804F0BD00D4B9A4208D00D4BB0
:1011B0009A4205D00C4B9A4202D00C4B9A4204D171
:1011C000496825F080031943916080F83D40002173
:1011D00080F83C10084670BD022070BD0000014040
:1011E0000004004000080040000C004000400140A6
:1011F00010B5040003D094F83D0010B107E00120C1
:1012000010BD002084F83C00204600F01FF80220AA
:1012100084F83D00211D206800F090FE012084F834
:10122000460084F83E0084F83F0084F8400084F8CB
:10123000410084F8420084F8430084F8440084F8B4
:10124000450084F83D00002010BD000008B501688D
:101250001D48B1F1804F11D01C4A91421DD1016847
:1012600041F0020101600068002200F002000090DD
:1012700011461D20FFF7B6FC1D201FE0016841F05C
:10128000010101600068002200F001000090114699
:101290001C20FFF7A7FC1C2010E00D4A914211D141
:1012A000016841F0040101600068002200F00400C0
:1012B000009011461E20FFF795FC1E20BDE8084057
:1012C000FFF782BC08BD0000403802400004004027
:1012D0000008004090F83D10012901D0012070471E
:1012E000022180F83D100168CA6842F00102CA601C
:1012F00000680E4988420ED0B0F1804F0BD00C49E7
:10130000884208D00B49884205D00B49884202D058
:101310000A49884204D1816801F00701062903D0F7
:10132000016841F0010101600020704700000140A8
:101330000004004000080040000C00400040014054
:1013400070B5044690F83C000025012817D001260E
:1013500084F83C60022084F83D002068826822F016
:10136000770222F47F4282600868502838D00DDC72
:1013700020284FD005DC90B3102811D14AE002207C
:1013800070BD302846D040280AD13BE060282FD0DD
:1013900070280DD0B0F5805F03D0B0F5005F12D09B
:1013A000012584F83D60002084F83C00284670BD8B
:1013B000CB68D1E90121206800F01FFE2068816818
:1013C00041F0770109E0CB68D1E90121206800F004
:1013D00014FE2068816841F480418160E1E719E0F2
:1013E000CA684968206800F0BDFE5021206806E008
:1013F000CA684968206800F0C6FE6021206800F0D5
:1014000006FECEE7CA684968206800F0ABFE4021BE
:101410002068F4E7226801461046F0E770472DE99E
:10142000F04104460068C66805694FF00007A90747
:1014300013D5B10711D5F91E01610120207720686D
:1014400080698007204602D0FFF7E8FF04E000F043
:10145000C1F8204600F053F92777680716D57007C2
:1014600014D521686FF004000861022020772068FD
:10147000806910F4407F204602D0FFF7CFFF04E0E0
:1014800000F0A8F8204600F03AF92777280715D58C
:10149000300713D521686FF0080008610420207719
:1014A0002068C0698007204602D0FFF7B7FF04E03C
:1014B00000F090F8204600F022F92777E80616D5CC
:1014C000F00614D521686FF010000861082020771D
:1014D0002068C06910F4407F204602D0FFF79EFFCD
:1014E00004E000F077F8204600F009F92777E807D4
:1014F00008D0F00706D021686FF00100086120468F
:1015000000F056F9280608D5300606D521686FF098
:10151000800008612046FFF72BFE680608D570069C
:1015200006D521686FF040000861204600F09AFA65
:10153000A8060AD5B00608D521686FF0200008611A
:101540002046BDE8F041FFF714BEBDE8F081000081
:1015500010B586B0044614216846FEF704FF2368E0
:10156000002118480222B3F1804F17D0164CA34235
:1015700012D1036843F002030360006800F0020028
:10158000059080200090CDE90121CDE903120F489C
:10159000694600BFFFF7C0F906B010BD036843F00D
:1015A00001030360006800F0010005904FF4004063
:1015B0000090CDE901210120CDE9031069460448DE
:1015C000E8E7000030380240000800400004024014
:1015D00000000240704770B5044690F83C000026B9
:1015E0000D4601280FD0012084F83C006AB1042A7E
:1015F0001DD0082A2FD00C2A3FD00126002084F8C5
:101600003C00304670BD022070BD206800F008FD2F
:101610002068816941F0080181612068816921F0B9
:1016200004018161206881692A69114311E0206801
:1016300000F01EFD2068816941F40061816120682D
:10164000816921F480618161206881692A6941EAA8
:1016500002218161D2E7206800F036FD2068C1696F
:1016600041F00801C1612068C16921F00401C16134
:101670002068C1692A69114311E0206800F050FD1B
:101680002068C16941F40061C1612068C16921F429
:101690008061C1612068C1692A6941EA0221C16192
:1016A000ACE710B5040003D094F83D0010B107E09A
:1016B000012010BD002084F83C00204600F01EF8F8
:1016C000022084F83D00211D206800F037FC012035
:1016D00084F8460084F83E0084F83F0084F8400017
:1016E00084F8410084F8420084F8430084F8440000
:1016F00084F8450084F83D00002010BD7047704715
:1017000010B50446022249B104290ED0082913D08D
:1017100094F84100012816D0012010BD94F83E0035
:101720000128F9D184F83E200FE094F83F00012809
:10173000F2D184F83F2008E094F840000128EBD172
:1017400084F8402001E084F841200122206800F064
:1017500047FC12492068884203D1426C42F400429F
:101760004264206888420ED0B0F1804F0BD00C4903
:10177000884208D00B49884205D00B49884202D0E4
:101780000A49884204D1816801F00701062903D083
:10179000016841F001010160002010BD000001401E
:1017A0000004004000080040000C004000400140E0
:1017B0002DE9F0472DED108B9FED9B0B9C4D85ED9A
:1017C0000E0B9FED9C0B53EC102B95ED0A0B51EC7F
:1017D000100B00F0EFFE9FED99EB53EC1E2B01F088
:1017E000E7F89FED981B53EC112B01F0E1F841EC69
:1017F000100BB3EE048A85ED0C0B00F0F5FD00EE46
:10180000100A38EE400A10EE100A01F0FBFA41EC23
:10181000180BA5F1800484ED0E8B94ED109B53EC16
:10182000192B01F005FA94ED00CB53EC1C2B01F0C1
:10183000BFF841EC1D0B53EC192B84ED06DB51EC8A
:10184000180B00F003FE41EC1B0B9FED800B53ECDB
:10185000102B94ED020B51EC100B01F0A9F8894606
:1018600049EC100B07469FED7BAB51EC100B53EC92
:101870001A2B01F09DF853EC1B2B01F099F841EC69
:101880001B0B84ED08BB9FED750B51EC190B53EC52
:10189000102B01F08DF853EC182B01F0BDF994EDED
:1018A000121B53EC112B00F0D1FD94ED040B41EC15
:1018B0001F0B53EC1A2B51EC100B00F07BFE8846EB
:1018C00048EC100B064653EC1F2B51EC100B01F0AB
:1018D0006FF841EC1F0B53EC1D2B84ED0AFB94EDCC
:1018E000140B51EC100B00F0B1FD53EC1B2B00F06E
:1018F000ADFD53EC1F2B00F0A9FDC4E90C0184EDF4
:10190000129B84ED108B9FED480BC4E9140185ED0B
:101910001C0B9FED480B53EC102B95ED180B51EC65
:10192000100B00F047FE53EC1E2B01F041F89FED29
:10193000451B53EC112B01F03BF841EC100BB3EEBF
:10194000048A85ED1A0B00F04FFD00EE100A38EE08
:10195000400A10EE100A01F055FA41EC180B85ED23
:10196000008B95ED029B53EC192B01F061F953ECC0
:101970001C2B01F01DF841EC1B0B53EC192B84EDD3
:1019800018BB51EC180B00F061FD49EC107B41ECE9
:101990001C0B53EC1A2B51EC100B01F009F853EC13
:1019A0001C2B01F005F841EC1A0B9FED2C0B84ED7C
:1019B0001AAB53EC102B51EC190B00F0F9FF53EC60
:1019C000182B01F029F995ED041B53EC112B00F0B5
:1019D0003DFD41EC100B48EC116B53EC102B51EC1E
:1019E000110B00F0E5FF41EC1C0B53EC1B2B84EDBD
:1019F0001CCB95ED060B51EC100B00F027FD53ECC2
:101A00001A2B00F023FD53EC1C2B00F01FFDC4E942
:101A10001E0185ED049B85ED028BC5E90601BDEC39
:101A2000108BBDE8F087000000000000000034408B
:101A3000800000200000000000F09E400000000038
:101A4000000059400000000000004E40000000006F
:101A50000000E03F7B14AE47E17A843F00000000C5
:101A6000000000407047FEE72DE9F04F87B01421D9
:101A70006846FEF778FC8E48002400688C4940F0E8
:101A800010000860086800F010000590086840F039
:101A900004000860086800F004000590086840F041
:101AA00080000860086800F0800005900846006823
:101AB00040F001000860086800F001000590086827
:101AC00040F002000860086800F002000590086815
:101AD00040F0080008600868764F00F008000590A4
:101AE000002208213846FFF707F801221146724804
:101AF000FFF702F8002230216F48FEF7FDFF0022B9
:101B000006216E48FEF7F8FF4FF2100B00225946EF
:101B10006B48FEF7F1FF4FF0040ACDE900A46946D7
:101B200038460294FEF7F8FE082601250096CDE916
:101B30000154694638460394FEF7EEFE32204FF416
:101B40009018CDE90008694602943846FEF7E4FE95
:101B50000095CDE90154694657480394FEF7DCFE31
:101B600000960226CDE901640527CDE903476946C1
:101B70005148FEF7D1FE0095CDE9018469465148F0
:101B8000FEF7CAFE10200090CDE901644FF0060870
:101B9000CDE9034869464B48FEF7BEFEE0204FF012
:101BA0000309CDE90006CDE9024969460497454895
:101BB000FEF7B2FE3020CDE90005CDE902546946BA
:101BC0003D48FEF7A9FECDE90085CDE902546946FE
:101BD0003A48FEF7A1FEB8020090CDE90164CDE9D4
:101BE000034769463548FEF797FE4FF4C0404FF46F
:101BF0004417CDE90007694602953048FEF78CFE90
:101C00004FF44070CDE90007694602952C48FEF775
:101C100083FECDF800B0CDE901546946284803940D
:101C2000FEF77AFE4FF4A4500090CDE90164CDE9AF
:101C3000034869462048FEF76FFE6802CDE90004BC
:101C4000694620480294FEF767FE4FF4E050CDE964
:101C5000000602940A20CDE9039069461948FEF770
:101C60005BFE2020CDE90004694615480294FEF78A
:101C700053FE4FF4107000901220CDE90104CDE91D
:101C8000034A69460D48FEF747FE00221146172019
:101C9000FEF7A8FF1720FEF797FF00221146282025
:101CA000FEF7A0FF2820FEF78FFF07B0BDE8F08FFA
:101CB0003038024000100240000802400004024098
:101CC000000C02400000024010B58EB000240794C2
:101CD000089409940A940B941C2168460C94FEF70E
:101CE00042FB1F484FF08041016042F6E061C0E9CD
:101CF0000114FE21C0E9031480218161FFF778FA05
:101D000008B172B6FEE74FF48050079007A9144857
:101D1000FFF716FB08B172B6FEE71148FFF7C1FCEA
:101D200008B172B6FEE70B940BA90D480C94FFF7AF
:101D300021FA08B172B6FEE7602000901820CDE9C4
:101D400001040022694606480494FFF744FC08B1E8
:101D500072B6FEE70248FFF7FBFB0EB010BD0000B5
:101D60002801002010B586B0002417480094019483
:101D700002940394049413490594016042F6E061CF
:101D8000C0E901140A21C0E9031480218161FFF731
:101D90002FFA08B172B6FEE74FF480500090694602
:101DA0000948FFF7CDFA08B172B6FEE7049404A91A
:101DB00005480594FFF7DEF9002801D072B6FEE76A
:101DC00006B010BD000400407001002010B58EB0B8
:101DD00000240794089409940A940B941C216846E3
:101DE0000C94FEF7C0FA1F481D49016042F6E061FD
:101DF000C0E90114FE21C0E903148461FFF7F8F97A
:101E000008B172B6FEE74FF48050079007A9154855
:101E1000FFF796FA08B172B6FEE71248FFF741FCE9
:101E200008B172B6FEE70B940BA90E480C94FFF7AD
:101E3000A1F908B172B6FEE7602000901820CDE944
:101E400001040422694607480494FFF7C4FB08B163
:101E500072B6FEE70348FFF77BFB0EB010BD000033
:101E600000080040B8010020FEE7FEE77047704719
:101E7000FEF74EBE10B592B030216846FEF773FAF9
:101E800014210CA8FEF76FFA1D480021026842F0E9
:101E900080520260006800F080501190194802687A
:101EA00042F4404202600068022400F44040119075
:101EB0000120039010200490009406940820CDE99E
:101EC0000710C02109910421CDE90A106846FEF7E8
:101ED00085FF08B172B6FEE70F20CDE90C04A02003
:101EE0000E9040010F904FF48050109000210CA8EC
:101EF000FEF7AAFE002801D072B6FEE712B010BDB0
:101F000040380240007000400248016841F470010E
:101F10000160704788ED00E00148FFF780BA0000DB
:101F2000280100200148FFF77ABA00007001002064
:101F30000148FFF774BA0000B8010020F0B502684C
:101F4000204B214C9F03214D214E984207D0B8428F
:101F500005D0A04203D0A84201D0B04204D122F063
:101F6000700C4A6842EA0C02984210D0B8420ED077
:101F7000A0420CD0A8420AD0B04208D0154CA042D2
:101F800005D0154CA04202D0144CA04203D122F43B
:101F90004074CA6822434C6922F0800222430260E6
:101FA0008A68C2620A688262984201D10969016343
:101FB000012141610169C90703D0016921F00101D3
:101FC0000161F0BD00000140000400400008004035
:101FD000000C004000400140004401400048014026
:101FE00010B501F01F030121046A99408C4304627B
:101FF000016A9A401143016210BD10B5846842EA3B
:10200000032224F47F440A432243826010BD826885
:1020100022F070020A4342F007018160704700001D
:1020200030B5036A026A22F00102026242688469E2
:1020300024F073050C682C4323F002058B682B43B6
:102040000A4DA8420BD123F00805CB6822F4407258
:102050002B434D6923F0040315438A692A434260E8
:10206000846149684163036230BD000000000140A3
:1020700030B5026A036A23F010030362436884697F
:102080000D6824F4E64444EA05248D6822F0200219
:1020900042EA05120B4DA8420ED1CD6822F0800213
:1020A00042EA05124D6923F4406343EA85038D69D2
:1020B00022F0400243EA85034360846149688163FA
:1020C000026230BD0000014030B5036A026A22F4AA
:1020D000807202624268C46923F4007324F07305BD
:1020E0000C682C438D6843EA05230C4DA8420ED1A1
:1020F000CD6823F4006343EA05234D6922F440527E
:1021000042EA05128D6923F4806342EA05124260B7
:10211000C4614968C163036230BD00000000014032
:1021200030B5046A026A22F4805202624268C369CE
:102130000D6823F4E64343EA05238D6824F4005434
:1021400044EA0534064DA84204D14D6922F4804288
:1021500042EA85124260C36149680164046230BD8D
:102160000000014010B5036A046A24F0010404620F
:10217000846924F0F00444EA021423F00A020A43BA
:102180008461026210BD10B5036A046A24F0100471
:102190000462846923F0A00324F4704444EA023208
:1021A00043EA01118261016210BDFEE70907090ED1
:1021B000002804DB00F1E02080F80014704700F0F4
:1021C0000F0000F1E02080F8141D70472DED088B02
:1021D000FEF7A6FCFFF74EFEFFF746FCFFF774FD87
:1021E000FFF7C0FDFFF7F2FD6F48FFF773F86E4889
:1021F00000214838FFF784FA6B4804214830FFF784
:102200007FFA694FDFF8A491483F9FED69BB9FEDCE
:102210006AAB9FED6B9B6C4CDFF8B08107F19006C9
:1022200004F1800594ED0C0BB0EE4B8AF0EE6B8A56
:1022300053EC182B51EC100B00F0B8FC25D294EDA8
:102240000C0B53EC192B51EC100B00F0AFFC06D229
:10225000B0EE490AF0EE690A84ED160B0FE094ED3A
:102260000C0B012284ED160B10214846FEF744FCAE
:10227000002220214846FEF73FFC94ED160B51EC5E
:10228000100B00F02BFB3968486394ED0C0B53ECFA
:10229000182B51EC100B00F04FFB25D294ED0C0BDA
:1022A00053EC1A2B51EC100B00F046FB02D284EDDC
:1022B000169B11E094ED0C0B51EC100B00F088F81C
:1022C000C4E91601012220214846FEF715FC002230
:1022D00010214846FEF710FC94ED160B51EC100B44
:1022E00000F0FCFA3968486394ED1E0B53EC182B90
:1022F00051EC100B00F05AFC25D294ED1E0B53EC60
:10230000192B51EC100B00F051FC06D2B0EE490A2B
:10231000F0EE690A85ED080B0FE094ED1E0B01222B
:1023200085ED080B02214046FEF7E6FB0022042162
:102330004046FEF7E1FB95ED080B51EC100B00F069
:10234000CDFA3168886394ED1E0B53EC182B51ECD9
:10235000100B00F0F1FABFF465AF94ED1E0B53ECD7
:102360001A2B51EC100B00F0E7FA02D285ED089B16
:1023700011E094ED1E0B51EC100B00F029F8C5E9AB
:102380000801012204214046FEF7B6FB002202218B
:102390004046FEF7B1FB95ED080B51EC100B00F039
:1023A0009DFA316888633DE7700100200008024013
:1023B00000000000000000000000000000408FC08E
:1023C0000000000000408F40000000200004024098
:1023D00081F00041704780F00040704721F00041DB
:1023E000704720F00040704721F00042A2F1605297
:1023F000B2F5801F01F0004328BFD2F17F6C0BD9EA
:102400005FEA001C43EAC20242EB507018BF7047FB
:1024100028BF20F001007047B2F5801FBCBF1846EE
:1024200070474FEA410C1CF5001F02D2084600F02D
:102430005FBD70B500F066FB00000089FFF7F6BFD6
:102440004FF00040A0F580007047000010B591EA01
:10245000030F48BF83F0004300F1F283841A71EB4D
:10246000030C05D2121943EB0C03001B61EB0C01AA
:10247000DFF824E14FEA1154A4EB135C1EEA430F8A
:1024800018BF9EEA445F73D023EA0E03DCF1200EEE
:1024900021EA045143F4801332D322FA0CFE10EBEC
:1024A0000E0023FA0CFE41EB0E01CCF1200E03FAD4
:1024B0000EFE10EB0E0051F10001B1F5801FCCF1C2
:1024C000200E32D201EB045112FA0EF2BDE8104098
:1024D00058BF7047401C38BF5FEA420218BF7047C0
:1024E000002814BF20F0010041F100014FEA410330
:1024F00013F5001F38BF7047A1F1C04100F050BB79
:10250000012A43EB0302ACF1200CDCF11F0E32BFB9
:102510004FF0000E23FA0CF310EB030041EB0451D3
:10252000B4EB115FD0D0A1EB045101F58011490843
:102530005FEA300001EB04510ED350F1000038BFC8
:1025400012FA0EFE08D1BDE81040C9E7401C38BFA2
:102550005FEA4202CAD1C3E7BDE810404FEA410337
:1025600013F5001F38BF7047A1F1C04100F018BB40
:102570009EEA445F08D011EA5E0FBDE8104004BF38
:1025800001F0004100207047BDE8104070B500F038
:10259000B9FA00BF64FBBE3E0000E0FF491058BF1F
:1025A000C1F140415B1058BFC3F140438B42EFF390
:1025B000008070472DE9C04130B4DFF8A0C23CEA8A
:1025C000111418BF3CEA131400F0EC8081EA0305F3
:1025D0001CEA111444EAD57418BF1CEA131500F064
:1025E000C780A4EB05044FF0004545EAC12145EA48
:1025F000C32341EA505143EA525304F17F74994294
:1026000004F500344FEAC0204FEAC22208BF9042CE
:1026100000F09C804FEA13650FF24016765D4FEA9A
:10262000134506FB05F7C7F1807706FB07F74FEA6E
:10263000D737A7FB03687642C8F58038A7FB06CEDC
:1026400038BFA8F1010807FB08E64FF0000EA6FB13
:10265000028CE6FB03CEDCF1000CCEF1004E38BF5D
:10266000AEF1010EA6FB0C584FF000074FF000052D
:10267000E6FB0E87A1FB08C6A0FB07CE16EB0E06F5
:1026800045F10005E1FB076515F1E04E7EBFA4F5BD
:1026900080345FEA46066D4116F1800745F100057A
:1026A0004FEA17274FEA066647EA0567A6F1DE46B6
:1026B000B6F1805F4FEA15251FD9384624F0010C8A
:1026C00005EBC471BCF1FE6F01EB0C1102D8F0BC3C
:1026D000BDE8008124425CBF01F5801E9EEAC47FF4
:1026E00002D4F0BCBDE80081244238D4F0BCA1F192
:1026F000C041BDE8004100F053BA4FEAD22242EA9D
:1027000043524FEAD323A7FB02864FEAD02040EA88
:10271000415007FB03661EEA0E0F4FEAD12105FB6D
:10272000026658BFA6EB0056B6EB00564FEA520EB3
:102730004EEAC37E18EB0E0E56EB530EBDD518EBCA
:1027400002085E417F1C55F10005B6E74FF4801585
:102750004FF000074FF000064FF00008ADE7F0BC67
:102760004FF0000001F1C04101F00041BDE80081DF
:1027700011EA0C1F0CEA131500D00CE013EA0C1F31
:1027800000F025804FF00000F0BC81EA030101F069
:102790000041BDE80081F0BCBDE8004181EA0301D1
:1027A00000F0FEB9F0BCBDE8004170B500F0AAF938
:1027B000097EFC3E00F007B881EA03014FF00000FB
:1027C00001F00041704781EA030100F0E9B9F0BC73
:1027D000BDE800414FF0000021497047FFFDFBF9C3
:1027E000F7F5F4F2F0EEEDEBE9E8E6E4E3E1E0DE44
:1027F000DDDBDAD8D7D5D4D3D1D0CFCDCCCBCAC8B6
:10280000C7C6C5C4C2C1C0BFBEBDBCBBBAB9B8B7DC
:10281000B6B5B4B3B2B1B0AFAEADACABAAA9A8A8CF
:10282000A7A6A5A4A3A3A2A1A09F9F9E9D9C9C9B9D
:102830009A99999897979695959493939291919048
:102840008F8F8E8E8D8C8C8B8B8A898988888787D9
:102850008685858484838382828181800000FF074E
:102860000000F87F51EA030C17D41CF5801F58BFF5
:10287000BCF5801F00F10680994218BF704708BF61
:102880009042704707D711F5801F58BF13F5801F7E
:1028900019D499427047894270471CF5801F08D5AA
:1028A000BCF5801FF7D58B4218BF704708BF824226
:1028B00070474FF4001C1CEB410F38BF1CEB430F5B
:1028C00001D28B42704770B500F01CF99224490088
:1028D0004FF000514FF08053FFF760BE4FEA1153A5
:1028E000A3F58063D3F11E03A8BFD3F1200C08DB4E
:1028F0004FF0004242EAC12252EA505232FA03F04B
:10290000704709420BD4102BC4BF0020704703F559
:10291000787CBCF1FF3F05D04FF0FF3070474FF09F
:102920000000704770B500F0EDF800BF49922480B8
:1029300000207047F0E7000051EA030C17D41CF5A3
:10294000801F58BFBCF5801F00F10680994218BF58
:10295000704708BF9042704707D711F5801F58BFD6
:1029600013F5801F19D499427047894270471CF5AE
:10297000801F08D5BCF5801FF7D58B4218BF704764
:1029800008BF824270474FF4001C1CEB410F38BF58
:102990001CEB430F01D28B42704770B500F0B2F8C8
:1029A000922449004FF000514FF08053FFF7F6BDDD
:1029B000DFF848C170B51CEA111E1EBF1CEA1315D2
:1029C0009EEA0C0F95EA0C0F00F06F8081EA030479
:1029D00023EA4C134EEAD47E21EA4C1141F48011D3
:1029E00043F48013AE44A1FB024CA0FB0365AEF19F
:1029F0007F7E361955EB0C05A1FB034C4CF100030F
:102A0000A0FB021C16EB0C06654153F100030942C2
:102A100018BF46F0010613F4007F0BD14FEA0331D3
:102A20004FEA0530340341EA155140EA16506FF081
:102A300003020AE04FEAC3214FEAC520F40241EA4B
:102A4000555140EA56506FF0020202EB2E4201EB64
:102A5000025585EACE710AD05FEA440C18BF24F013
:102A6000004450F1000041F1000120EAD47040F22E
:102A7000FE7C624500D270BDA84214BF4FF0804476
:102A80004FF04044002E08BF0024BEF1806FA8BF65
:102A9000A1F1C041BDE8704080F282804FF000009B
:102AA00001F1C04101F0004170479EEA0C0F0CEAB1
:102AB000131518BF95EA0C0F06D04FF0000081EAFD
:102AC000030E0EF0004170BD00F01CF88900013EBD
:102AD00000F007B800F009B84FEA430C5FEA5C5C0D
:102AE00008D081EA030100F05BB84FEA410C5FEACD
:102AF0005C5CF6D14FF00000014970470000FF0711
:102B00000000F87F0EF1020E2EF0030E5EF8046B4B
:102B1000364205D4012A43EB030515F5001F12D8F0
:102B2000012841EB010C1CF5001F0CD80ED14FEA17
:102B3000D17C15F5001F0CEB4C0C0CF1020C08BFFE
:102B40004CEBD37C04E04FF0080C01E04FEAD37C5F
:102B50000CEB4C0526FA05F606F00706B6F1040C58
:102B600006D20EEB860CBDE870404CF0010C6047BD
:102B7000DFE80CF0090B02024FF000414FF00000BB
:102B8000A1F5002170BD19461046012851EB010442
:102B900018BFD4F5001484BF002001F0004170BDBF
:102BA0000808A0F500114FEA3101704753EA010C03
:102BB00017D41CF5801F58BFBCF5801F00F106809C
:102BC0008B4218BF704708BF8242704707D713F582
:102BD000801F58BF11F5801F19D48B4270479B424C
:102BE00070471CF5801F08D5BCF5801FF7D59942AA
:102BF00018BF704708BF904270474FF4001C1CEB91
:102C0000430F38BF1CEB410F01D2994270470FB4FC
:102C10000CBC03BCFFF7C1BE91EA030F10B581F0F5
:102C200000413FF51BAC83F0004300F009B8000001
:102C300010B591EA030F48BF83F000433FF50EAC97
:102C4000841A71EB030C07D212198CF0004C43EB81
:102C50000C03001B61EB0C01DFF8A4E14FEA1154F7
:102C6000A4EB135C1EEA430F18BF9EEA445F00F01A
:102C7000B08023EA6E03524221EA0451C3EB6E0393
:102C800038BF5B1EDCF1200E25D322FA0CFE10EBC0
:102C90000E0043FA0CFE41EB0E01CCF1200E03FABC
:102CA0000EFE10EB0E0051F10001CCF1200E29D4E4
:102CB00012FA0EF201EB0451BDE8104058BF704704
:102CC000401C1CBFB2F1004F704700280CBF491CCC
:102CD00020F00100704712EB020E43EB030218BF15
:102CE0004FF0010E4EEA4202ACF1200CDCF11E0E58
:102CF00054D943FA0CFE10EB0E0051F1FF31CCF128
:102D00001E0ED5D50EF1010E12FA0EFE404141EB1A
:102D1000010101EB445C5FEA5C5C10D910EBDE70F2
:102D200001EB045138BFBEF1004FBDE8104018BFA1
:102D3000704700280CBF491C20F00100704730D2BA
:102D40004FEAD42C11F5001124F400641BD0B1FA21
:102D500081F20B3AA41AA41ED2F12003914030FA5A
:102D600003F31943904001EBCC71002C01EB0451AB
:102D7000BDE81040A8BF704701F1C0414FF000000E
:102D800001F000417047B0FA80F310FA03F100D16E
:102D900010BDE41A173C4805C90AE4E701EB0451E9
:102DA00010BD491001EB0451BDE810404FEA30005E
:102DB00002E04FF0000170474A0008BF0042F8D01F
:102DC000B2F5001F28BF704701F000414FF000002E
:102DD00070479EEA445F07D011EA5E0FBDE81040DD
:102DE00004BF002100207047BDE8104070B5FFF718
:102DF00089FE00BF40DFF63E83F000411046704779
:102E00000000E0FF43004FEAD30C4FEA3C0C434084
:102E10001FBF40070CF1605113F0FE4F70471CF0CC
:102E2000006F03D100200CF0004170470CF000430C
:102E300043EA507010B540EACC0000F00EF800BF35
:102E4000000000924FEA0001FFF7AABE4FF00041D8
:102E50004FF00000A1F5002170470EF1020E2EF098
:102E6000030E5EF8044B244204D44FEA4102B2F14F
:102E70007F4F11D84FEA4003B3F17F4F0CD80ED1EA
:102E80004FEAD07CB2F17F4F0CEB4C0C0CF1020CF2
:102E900008BF4CEBD17C04E04FF0080C01E04FEA96
:102EA000D17C0CEB4C0324FA03F404F00704B4F1D6
:102EB000040C06D20EEB840CBDE810404CF0010C63
:102EC0006047DFE80CF0070802024FF00040A0F571
:102ED000800010BD0846420018BFD2F1807288BF42
:102EE00000F0004010BD4FF04070E1EE100A704756
:102EF000FF2141EAD050C0057047000000000000EB
:102F00000000010203040607080900002C2F000836
:102F10000000002028010000D401000854300008FF
:102F20002801002038070000F00100080000000020
:102F30000000F03F7B14AE47E17A843F00000000C0
:102F40000000000000000000000000000000000081
:102F50000000000000000000000000000000000071
:102F60000000000000000000000000000000000061
:102F70000000000000000000000000000000000051
:102F80000000000000000000000000000000000041
:102F90000000000000000000000000000000000031
:102FA0000000000000000000000000000000000021
:102FB0000000000000000000000000000000000011
:102FC0000000000000000000000000000000000001
:102FD00000000000000000000000000000000000F1
:102FE00000000000000000000000000000000000E1
:102FF00000000000000000000000000000000000D1
:1030000000000000000000000000000000000000C0
:1030100000000000000000000000000000000000B0
:1030200000000000000000000000000000000000A0
:103030000000000000000000000000000000000090
:10304000000000000100000010000000000000006F
:043050000024F40064
:040000050800019955
:00000001FF
